{
  "_format": "hh-sol-artifact-1",
  "contractName": "Game",
  "sourceName": "contracts/Game.sol",
  "abi": [
    {
      "inputs": [
        {
          "internalType": "string[]",
          "name": "characterNames",
          "type": "string[]"
        },
        {
          "internalType": "string[]",
          "name": "imageURIs",
          "type": "string[]"
        },
        {
          "internalType": "uint8[]",
          "name": "growthInfluences",
          "type": "uint8[]"
        },
        {
          "internalType": "string",
          "name": "treeImageURI",
          "type": "string"
        },
        {
          "internalType": "uint256",
          "name": "treeMaxHealth",
          "type": "uint256"
        },
        {
          "internalType": "uint256",
          "name": "treeFruitToBear",
          "type": "uint256"
        }
      ],
      "stateMutability": "nonpayable",
      "type": "constructor"
    },
    {
      "anonymous": false,
      "inputs": [
        {
          "indexed": true,
          "internalType": "address",
          "name": "owner",
          "type": "address"
        },
        {
          "indexed": true,
          "internalType": "address",
          "name": "approved",
          "type": "address"
        },
        {
          "indexed": true,
          "internalType": "uint256",
          "name": "tokenId",
          "type": "uint256"
        }
      ],
      "name": "Approval",
      "type": "event"
    },
    {
      "anonymous": false,
      "inputs": [
        {
          "indexed": true,
          "internalType": "address",
          "name": "owner",
          "type": "address"
        },
        {
          "indexed": true,
          "internalType": "address",
          "name": "operator",
          "type": "address"
        },
        {
          "indexed": false,
          "internalType": "bool",
          "name": "approved",
          "type": "bool"
        }
      ],
      "name": "ApprovalForAll",
      "type": "event"
    },
    {
      "anonymous": false,
      "inputs": [
        {
          "indexed": false,
          "internalType": "address",
          "name": "sender",
          "type": "address"
        },
        {
          "indexed": false,
          "internalType": "uint256",
          "name": "tokenId",
          "type": "uint256"
        },
        {
          "indexed": false,
          "internalType": "uint256",
          "name": "characterIndex",
          "type": "uint256"
        }
      ],
      "name": "CharacterNftMinted",
      "type": "event"
    },
    {
      "anonymous": false,
      "inputs": [
        {
          "indexed": false,
          "internalType": "string",
          "name": "name",
          "type": "string"
        },
        {
          "indexed": false,
          "internalType": "uint256",
          "name": "fruitCollected",
          "type": "uint256"
        }
      ],
      "name": "PlayerCollectsFruit",
      "type": "event"
    },
    {
      "anonymous": false,
      "inputs": [
        {
          "indexed": true,
          "internalType": "address",
          "name": "from",
          "type": "address"
        },
        {
          "indexed": true,
          "internalType": "address",
          "name": "to",
          "type": "address"
        },
        {
          "indexed": true,
          "internalType": "uint256",
          "name": "tokenId",
          "type": "uint256"
        }
      ],
      "name": "Transfer",
      "type": "event"
    },
    {
      "anonymous": false,
      "inputs": [
        {
          "indexed": false,
          "internalType": "uint256",
          "name": "health",
          "type": "uint256"
        },
        {
          "indexed": false,
          "internalType": "uint256",
          "name": "maxHealth",
          "type": "uint256"
        },
        {
          "indexed": false,
          "internalType": "uint256",
          "name": "fruitToBear",
          "type": "uint256"
        }
      ],
      "name": "TreeSupportBegin",
      "type": "event"
    },
    {
      "anonymous": false,
      "inputs": [
        {
          "indexed": false,
          "internalType": "uint256",
          "name": "health",
          "type": "uint256"
        },
        {
          "indexed": false,
          "internalType": "uint256",
          "name": "maxHealth",
          "type": "uint256"
        },
        {
          "indexed": false,
          "internalType": "uint256",
          "name": "fruitToBear",
          "type": "uint256"
        }
      ],
      "name": "TreeSupportEnd",
      "type": "event"
    },
    {
      "inputs": [
        {
          "internalType": "address",
          "name": "",
          "type": "address"
        }
      ],
      "name": "addressToLevelSupporter",
      "outputs": [
        {
          "internalType": "bool",
          "name": "",
          "type": "bool"
        }
      ],
      "stateMutability": "view",
      "type": "function"
    },
    {
      "inputs": [
        {
          "internalType": "address",
          "name": "to",
          "type": "address"
        },
        {
          "internalType": "uint256",
          "name": "tokenId",
          "type": "uint256"
        }
      ],
      "name": "approve",
      "outputs": [],
      "stateMutability": "nonpayable",
      "type": "function"
    },
    {
      "inputs": [
        {
          "internalType": "address",
          "name": "owner",
          "type": "address"
        }
      ],
      "name": "balanceOf",
      "outputs": [
        {
          "internalType": "uint256",
          "name": "",
          "type": "uint256"
        }
      ],
      "stateMutability": "view",
      "type": "function"
    },
    {
      "inputs": [],
      "name": "checkIfUserHasNft",
      "outputs": [
        {
          "components": [
            {
              "internalType": "uint256",
              "name": "index",
              "type": "uint256"
            },
            {
              "internalType": "string",
              "name": "name",
              "type": "string"
            },
            {
              "internalType": "string",
              "name": "imageURI",
              "type": "string"
            },
            {
              "internalType": "uint8",
              "name": "growthInfluence",
              "type": "uint8"
            },
            {
              "internalType": "uint256",
              "name": "fruitCollected",
              "type": "uint256"
            }
          ],
          "internalType": "struct Game.CharacterAttributes",
          "name": "",
          "type": "tuple"
        }
      ],
      "stateMutability": "view",
      "type": "function"
    },
    {
      "inputs": [
        {
          "internalType": "uint256",
          "name": "tokenId",
          "type": "uint256"
        }
      ],
      "name": "getApproved",
      "outputs": [
        {
          "internalType": "address",
          "name": "",
          "type": "address"
        }
      ],
      "stateMutability": "view",
      "type": "function"
    },
    {
      "inputs": [],
      "name": "getDefaultCharacters",
      "outputs": [
        {
          "components": [
            {
              "internalType": "uint256",
              "name": "index",
              "type": "uint256"
            },
            {
              "internalType": "string",
              "name": "name",
              "type": "string"
            },
            {
              "internalType": "string",
              "name": "imageURI",
              "type": "string"
            },
            {
              "internalType": "uint8",
              "name": "growthInfluence",
              "type": "uint8"
            },
            {
              "internalType": "uint256",
              "name": "fruitCollected",
              "type": "uint256"
            }
          ],
          "internalType": "struct Game.CharacterAttributes[]",
          "name": "",
          "type": "tuple[]"
        }
      ],
      "stateMutability": "view",
      "type": "function"
    },
    {
      "inputs": [],
      "name": "getTreeOfLife",
      "outputs": [
        {
          "components": [
            {
              "internalType": "string",
              "name": "imageURI",
              "type": "string"
            },
            {
              "internalType": "uint256",
              "name": "health",
              "type": "uint256"
            },
            {
              "internalType": "uint256",
              "name": "maxHealth",
              "type": "uint256"
            },
            {
              "internalType": "uint256",
              "name": "fruitToBear",
              "type": "uint256"
            }
          ],
          "internalType": "struct Game.TreeOfLife",
          "name": "",
          "type": "tuple"
        }
      ],
      "stateMutability": "view",
      "type": "function"
    },
    {
      "inputs": [
        {
          "internalType": "address",
          "name": "owner",
          "type": "address"
        },
        {
          "internalType": "address",
          "name": "operator",
          "type": "address"
        }
      ],
      "name": "isApprovedForAll",
      "outputs": [
        {
          "internalType": "bool",
          "name": "",
          "type": "bool"
        }
      ],
      "stateMutability": "view",
      "type": "function"
    },
    {
      "inputs": [
        {
          "internalType": "uint256",
          "name": "_characterIndex",
          "type": "uint256"
        }
      ],
      "name": "mintCharacterNft",
      "outputs": [],
      "stateMutability": "nonpayable",
      "type": "function"
    },
    {
      "inputs": [],
      "name": "name",
      "outputs": [
        {
          "internalType": "string",
          "name": "",
          "type": "string"
        }
      ],
      "stateMutability": "view",
      "type": "function"
    },
    {
      "inputs": [
        {
          "internalType": "address",
          "name": "",
          "type": "address"
        }
      ],
      "name": "nftHolderAddressToToken",
      "outputs": [
        {
          "internalType": "uint256",
          "name": "",
          "type": "uint256"
        }
      ],
      "stateMutability": "view",
      "type": "function"
    },
    {
      "inputs": [
        {
          "internalType": "uint256",
          "name": "tokenId",
          "type": "uint256"
        }
      ],
      "name": "ownerOf",
      "outputs": [
        {
          "internalType": "address",
          "name": "",
          "type": "address"
        }
      ],
      "stateMutability": "view",
      "type": "function"
    },
    {
      "inputs": [
        {
          "internalType": "address",
          "name": "from",
          "type": "address"
        },
        {
          "internalType": "address",
          "name": "to",
          "type": "address"
        },
        {
          "internalType": "uint256",
          "name": "tokenId",
          "type": "uint256"
        }
      ],
      "name": "safeTransferFrom",
      "outputs": [],
      "stateMutability": "nonpayable",
      "type": "function"
    },
    {
      "inputs": [
        {
          "internalType": "address",
          "name": "from",
          "type": "address"
        },
        {
          "internalType": "address",
          "name": "to",
          "type": "address"
        },
        {
          "internalType": "uint256",
          "name": "tokenId",
          "type": "uint256"
        },
        {
          "internalType": "bytes",
          "name": "_data",
          "type": "bytes"
        }
      ],
      "name": "safeTransferFrom",
      "outputs": [],
      "stateMutability": "nonpayable",
      "type": "function"
    },
    {
      "inputs": [
        {
          "internalType": "address",
          "name": "operator",
          "type": "address"
        },
        {
          "internalType": "bool",
          "name": "approved",
          "type": "bool"
        }
      ],
      "name": "setApprovalForAll",
      "outputs": [],
      "stateMutability": "nonpayable",
      "type": "function"
    },
    {
      "inputs": [],
      "name": "supportTreeOfLife",
      "outputs": [],
      "stateMutability": "nonpayable",
      "type": "function"
    },
    {
      "inputs": [
        {
          "internalType": "bytes4",
          "name": "interfaceId",
          "type": "bytes4"
        }
      ],
      "name": "supportsInterface",
      "outputs": [
        {
          "internalType": "bool",
          "name": "",
          "type": "bool"
        }
      ],
      "stateMutability": "view",
      "type": "function"
    },
    {
      "inputs": [],
      "name": "symbol",
      "outputs": [
        {
          "internalType": "string",
          "name": "",
          "type": "string"
        }
      ],
      "stateMutability": "view",
      "type": "function"
    },
    {
      "inputs": [
        {
          "internalType": "uint256",
          "name": "",
          "type": "uint256"
        }
      ],
      "name": "tokenToAttributes",
      "outputs": [
        {
          "internalType": "uint256",
          "name": "index",
          "type": "uint256"
        },
        {
          "internalType": "string",
          "name": "name",
          "type": "string"
        },
        {
          "internalType": "string",
          "name": "imageURI",
          "type": "string"
        },
        {
          "internalType": "uint8",
          "name": "growthInfluence",
          "type": "uint8"
        },
        {
          "internalType": "uint256",
          "name": "fruitCollected",
          "type": "uint256"
        }
      ],
      "stateMutability": "view",
      "type": "function"
    },
    {
      "inputs": [
        {
          "internalType": "uint256",
          "name": "_tokenId",
          "type": "uint256"
        }
      ],
      "name": "tokenURI",
      "outputs": [
        {
          "internalType": "string",
          "name": "",
          "type": "string"
        }
      ],
      "stateMutability": "view",
      "type": "function"
    },
    {
      "inputs": [
        {
          "internalType": "address",
          "name": "from",
          "type": "address"
        },
        {
          "internalType": "address",
          "name": "to",
          "type": "address"
        },
        {
          "internalType": "uint256",
          "name": "tokenId",
          "type": "uint256"
        }
      ],
      "name": "transferFrom",
      "outputs": [],
      "stateMutability": "nonpayable",
      "type": "function"
    },
    {
      "inputs": [],
      "name": "treeOfLife",
      "outputs": [
        {
          "internalType": "string",
          "name": "imageURI",
          "type": "string"
        },
        {
          "internalType": "uint256",
          "name": "health",
          "type": "uint256"
        },
        {
          "internalType": "uint256",
          "name": "maxHealth",
          "type": "uint256"
        },
        {
          "internalType": "uint256",
          "name": "fruitToBear",
          "type": "uint256"
        }
      ],
      "stateMutability": "view",
      "type": "function"
    }
  ],
  "bytecode": "0x60806040523480156200001157600080fd5b5060405162005b1638038062005b1683398181016040528101906200003791906200089e565b6040518060400160405280600881526020017f506c616e746572730000000000000000000000000000000000000000000000008152506040518060400160405280600481526020017f504c4e54000000000000000000000000000000000000000000000000000000008152508160009080519060200190620000bb9291906200061a565b508060019080519060200190620000d49291906200061a565b505050620001226040518060400160405280601f81526020017f4372656174696e672067616d6520636f6e747261637420696e7374616e636500815250620003e360201b62001de41760201c565b60405180608001604052808481526020016000815260200183815260200182815250600c6000820151816000019080519060200190620001649291906200061a565b50602082015181600101556040820151816002015560608201518160030155905050620001b86040518060600160405280603f815260200162005ad7603f91396000836200048660201b62001e7d1760201c565b60005b86518160ff161015620003bf5760006040518060a001604052808360ff168152602001898460ff16815181106200021b577f4e487b7100000000000000000000000000000000000000000000000000000000600052603260045260246000fd5b60200260200101518152602001888460ff168151811062000265577f4e487b7100000000000000000000000000000000000000000000000000000000600052603260045260246000fd5b60200260200101518152602001878460ff1681518110620002af577f4e487b7100000000000000000000000000000000000000000000000000000000600052603260045260246000fd5b602002602001015160ff1681526020016000815250905060078190806001815401808255809150506001900390600052602060002090600502016000909190919091506000820151816000015560208201518160010190805190602001906200031a9291906200061a565b506040820151816002019080519060200190620003399291906200061a565b5060608201518160030160006101000a81548160ff021916908360ff160217905550608082015181600401555050620003a86040518060600160405280603a815260200162005a9d603a91398260200151836060015160ff1684604001516200052f60201b62001f1c1760201c565b508080620003b69062000c18565b915050620001bb565b50620003d76006620005db60201b62001fbe1760201c565b50505050505062000d19565b6200048381604051602401620003fa9190620009ea565b6040516020818303038152906040527f41304fac000000000000000000000000000000000000000000000000000000007bffffffffffffffffffffffffffffffffffffffffffffffffffffffff19166020820180517bffffffffffffffffffffffffffffffffffffffffffffffffffffffff8381831617835250505050620005f160201b60201c565b50565b6200052a838383604051602401620004a19392919062000a70565b6040516020818303038152906040527f969cdd03000000000000000000000000000000000000000000000000000000007bffffffffffffffffffffffffffffffffffffffffffffffffffffffff19166020820180517bffffffffffffffffffffffffffffffffffffffffffffffffffffffff8381831617835250505050620005f160201b60201c565b505050565b620005d5848484846040516024016200054c949392919062000a0e565b6040516020818303038152906040527f8d142cdd000000000000000000000000000000000000000000000000000000007bffffffffffffffffffffffffffffffffffffffffffffffffffffffff19166020820180517bffffffffffffffffffffffffffffffffffffffffffffffffffffffff8381831617835250505050620005f160201b60201c565b50505050565b6001816000016000828254019250508190555050565b60008151905060006a636f6e736f6c652e6c6f679050602083016000808483855afa5050505050565b828054620006289062000be2565b90600052602060002090601f0160209004810192826200064c576000855562000698565b82601f106200066757805160ff191683800117855562000698565b8280016001018555821562000698579182015b82811115620006975782518255916020019190600101906200067a565b5b509050620006a79190620006ab565b5090565b5b80821115620006c6576000816000905550600101620006ac565b5090565b6000620006e1620006db8462000ae8565b62000ab4565b9050808382526020820190508260005b858110156200072557815185016200070a888262000843565b845260208401935060208301925050600181019050620006f1565b5050509392505050565b600062000746620007408462000b17565b62000ab4565b905080838252602082019050828560208602820111156200076657600080fd5b60005b858110156200079a57816200077f888262000887565b84526020840193506020830192505060018101905062000769565b5050509392505050565b6000620007bb620007b58462000b46565b62000ab4565b905082815260208101848484011115620007d457600080fd5b620007e184828562000bac565b509392505050565b600082601f830112620007fb57600080fd5b81516200080d848260208601620006ca565b91505092915050565b600082601f8301126200082857600080fd5b81516200083a8482602086016200072f565b91505092915050565b600082601f8301126200085557600080fd5b815162000867848260208601620007a4565b91505092915050565b600081519050620008818162000ce5565b92915050565b600081519050620008988162000cff565b92915050565b60008060008060008060c08789031215620008b857600080fd5b600087015167ffffffffffffffff811115620008d357600080fd5b620008e189828a01620007e9565b965050602087015167ffffffffffffffff811115620008ff57600080fd5b6200090d89828a01620007e9565b955050604087015167ffffffffffffffff8111156200092b57600080fd5b6200093989828a0162000816565b945050606087015167ffffffffffffffff8111156200095757600080fd5b6200096589828a0162000843565b93505060806200097889828a0162000870565b92505060a06200098b89828a0162000870565b9150509295509295509295565b6000620009a58262000b79565b620009b1818562000b84565b9350620009c381856020860162000bac565b620009ce8162000cd4565b840191505092915050565b620009e48162000b95565b82525050565b6000602082019050818103600083015262000a06818462000998565b905092915050565b6000608082019050818103600083015262000a2a818762000998565b9050818103602083015262000a40818662000998565b905062000a516040830185620009d9565b818103606083015262000a65818462000998565b905095945050505050565b6000606082019050818103600083015262000a8c818662000998565b905062000a9d6020830185620009d9565b62000aac6040830184620009d9565b949350505050565b6000604051905081810181811067ffffffffffffffff8211171562000ade5762000add62000ca5565b5b8060405250919050565b600067ffffffffffffffff82111562000b065762000b0562000ca5565b5b602082029050602081019050919050565b600067ffffffffffffffff82111562000b355762000b3462000ca5565b5b602082029050602081019050919050565b600067ffffffffffffffff82111562000b645762000b6362000ca5565b5b601f19601f8301169050602081019050919050565b600081519050919050565b600082825260208201905092915050565b6000819050919050565b600060ff82169050919050565b60005b8381101562000bcc57808201518184015260208101905062000baf565b8381111562000bdc576000848401525b50505050565b6000600282049050600182168062000bfb57607f821691505b6020821081141562000c125762000c1162000c76565b5b50919050565b600062000c258262000b9f565b915060ff82141562000c3c5762000c3b62000c47565b5b600182019050919050565b7f4e487b7100000000000000000000000000000000000000000000000000000000600052601160045260246000fd5b7f4e487b7100000000000000000000000000000000000000000000000000000000600052602260045260246000fd5b7f4e487b7100000000000000000000000000000000000000000000000000000000600052604160045260246000fd5b6000601f19601f8301169050919050565b62000cf08162000b95565b811462000cfc57600080fd5b50565b62000d0a8162000b9f565b811462000d1657600080fd5b50565b614d748062000d296000396000f3fe608060405234801561001057600080fd5b50600436106101425760003560e01c806395d89b41116100b8578063c87b56dd1161007c578063c87b56dd14610352578063ca0f908814610382578063cacd0f01146103b2578063d06ecb99146103e6578063e985e9c514610404578063f65ecbe31461043457610142565b806395d89b41146102d4578063a22cb465146102f2578063ab7a7d001461030e578063b88d4fde14610318578063c732d3961461033457610142565b806323b872dd1161010a57806323b872dd1461020257806342842e0e1461021e57806355e7ac6c1461023a5780636352211e1461025657806370a082311461028657806374bce80a146102b657610142565b806301ba7c471461014757806301ffc9a71461016857806306fdde0314610198578063081812fc146101b6578063095ea7b3146101e6575b600080fd5b61014f610464565b60405161015f9493929190614382565b60405180910390f35b610182600480360381019061017d9190613571565b61050a565b60405161018f91906141e5565b60405180910390f35b6101a06105ec565b6040516101ad9190614200565b60405180910390f35b6101d060048036038101906101cb91906135c3565b61067e565b6040516101dd9190614125565b60405180910390f35b61020060048036038101906101fb9190613535565b610703565b005b61021c6004803603810190610217919061342f565b61081b565b005b6102386004803603810190610233919061342f565b61087b565b005b610254600480360381019061024f91906135c3565b61089b565b005b610270600480360381019061026b91906135c3565b610ddd565b60405161027d9190614125565b60405180910390f35b6102a0600480360381019061029b91906133ca565b610e8f565b6040516102ad91906145e2565b60405180910390f35b6102be610f47565b6040516102cb91906141c3565b60405180910390f35b6102dc6110fb565b6040516102e99190614200565b60405180910390f35b61030c600480360381019061030791906134f9565b61118d565b005b61031661130e565b005b610332600480360381019061032d919061347e565b61169f565b005b61033c611701565b604051610349919061459e565b60405180910390f35b61036c600480360381019061036791906135c3565b6118e8565b6040516103799190614200565b60405180910390f35b61039c600480360381019061039791906133ca565b611afb565b6040516103a991906145e2565b60405180910390f35b6103cc60048036038101906103c791906135c3565b611b13565b6040516103dd9594939291906145fd565b60405180910390f35b6103ee611c66565b6040516103fb91906145c0565b60405180910390f35b61041e600480360381019061041991906133f3565b611d30565b60405161042b91906141e5565b60405180910390f35b61044e600480360381019061044991906133ca565b611dc4565b60405161045b91906141e5565b60405180910390f35b600c80600001805461047590614970565b80601f01602080910402602001604051908101604052809291908181526020018280546104a190614970565b80156104ee5780601f106104c3576101008083540402835291602001916104ee565b820191906000526020600020905b8154815290600101906020018083116104d157829003601f168201915b5050505050908060010154908060020154908060030154905084565b60007f80ac58cd000000000000000000000000000000000000000000000000000000007bffffffffffffffffffffffffffffffffffffffffffffffffffffffff1916827bffffffffffffffffffffffffffffffffffffffffffffffffffffffff191614806105d557507f5b5e139f000000000000000000000000000000000000000000000000000000007bffffffffffffffffffffffffffffffffffffffffffffffffffffffff1916827bffffffffffffffffffffffffffffffffffffffffffffffffffffffff1916145b806105e557506105e482611fd4565b5b9050919050565b6060600080546105fb90614970565b80601f016020809104026020016040519081016040528092919081815260200182805461062790614970565b80156106745780601f1061064957610100808354040283529160200191610674565b820191906000526020600020905b81548152906001019060200180831161065757829003601f168201915b5050505050905090565b60006106898261203e565b6106c8576040517f08c379a00000000000000000000000000000000000000000000000000000000081526004016106bf9061451e565b60405180910390fd5b6004600083815260200190815260200160002060009054906101000a900473ffffffffffffffffffffffffffffffffffffffff169050919050565b600061070e82610ddd565b90508073ffffffffffffffffffffffffffffffffffffffff168373ffffffffffffffffffffffffffffffffffffffff16141561077f576040517f08c379a00000000000000000000000000000000000000000000000000000000081526004016107769061455e565b60405180910390fd5b8073ffffffffffffffffffffffffffffffffffffffff1661079e6120aa565b73ffffffffffffffffffffffffffffffffffffffff1614806107cd57506107cc816107c76120aa565b611d30565b5b61080c576040517f08c379a00000000000000000000000000000000000000000000000000000000081526004016108039061449e565b60405180910390fd5b61081683836120b2565b505050565b61082c6108266120aa565b8261216b565b61086b576040517f08c379a00000000000000000000000000000000000000000000000000000000081526004016108629061457e565b60405180910390fd5b610876838383612249565b505050565b6108968383836040518060200160405280600081525061169f565b505050565b6000600960003373ffffffffffffffffffffffffffffffffffffffff1673ffffffffffffffffffffffffffffffffffffffff16815260200190815260200160002054146108e757600080fd5b60006108f360066124a5565b90506108ff33826124b3565b6040518060a001604052808381526020016007848154811061094a577f4e487b7100000000000000000000000000000000000000000000000000000000600052603260045260246000fd5b9060005260206000209060050201600101805461096690614970565b80601f016020809104026020016040519081016040528092919081815260200182805461099290614970565b80156109df5780601f106109b4576101008083540402835291602001916109df565b820191906000526020600020905b8154815290600101906020018083116109c257829003601f168201915b5050505050815260200160078481548110610a23577f4e487b7100000000000000000000000000000000000000000000000000000000600052603260045260246000fd5b90600052602060002090600502016002018054610a3f90614970565b80601f0160208091040260200160405190810160405280929190818152602001828054610a6b90614970565b8015610ab85780601f10610a8d57610100808354040283529160200191610ab8565b820191906000526020600020905b815481529060010190602001808311610a9b57829003601f168201915b5050505050815260200160078481548110610afc577f4e487b7100000000000000000000000000000000000000000000000000000000600052603260045260246000fd5b906000526020600020906005020160030160009054906101000a900460ff1660ff16815260200160078481548110610b5d577f4e487b7100000000000000000000000000000000000000000000000000000000600052603260045260246000fd5b90600052602060002090600502016004015481525060086000838152602001908152602001600020600082015181600001556020820151816001019080519060200190610bab9291906131fc565b506040820151816002019080519060200190610bc89291906131fc565b5060608201518160030160006101000a81548160ff021916908360ff16021790555060808201518160040155905050610ced6040518060600160405280602c8152602001614c30602c913960078481548110610c4d577f4e487b7100000000000000000000000000000000000000000000000000000000600052603260045260246000fd5b90600052602060002090600502016001018054610c6990614970565b80601f0160208091040260200160405190810160405280929190818152602001828054610c9590614970565b8015610ce25780601f10610cb757610100808354040283529160200191610ce2565b820191906000526020600020905b815481529060010190602001808311610cc557829003601f168201915b5050505050836124d1565b80600960003373ffffffffffffffffffffffffffffffffffffffff1673ffffffffffffffffffffffffffffffffffffffff16815260200190815260200160002081905550600b339080600181540180825580915050600190039060005260206000200160009091909190916101000a81548173ffffffffffffffffffffffffffffffffffffffff021916908373ffffffffffffffffffffffffffffffffffffffff160217905550610d9e6006611fbe565b7f5c5a40a57afc3c1041f01d72639b5cc9543d2f381f4f9869d6ce1ed50b45d498338284604051610dd19392919061418c565b60405180910390a15050565b6000806002600084815260200190815260200160002060009054906101000a900473ffffffffffffffffffffffffffffffffffffffff169050600073ffffffffffffffffffffffffffffffffffffffff168173ffffffffffffffffffffffffffffffffffffffff161415610e86576040517f08c379a0000000000000000000000000000000000000000000000000000000008152600401610e7d906144de565b60405180910390fd5b80915050919050565b60008073ffffffffffffffffffffffffffffffffffffffff168273ffffffffffffffffffffffffffffffffffffffff161415610f00576040517f08c379a0000000000000000000000000000000000000000000000000000000008152600401610ef7906144be565b60405180910390fd5b600360008373ffffffffffffffffffffffffffffffffffffffff1673ffffffffffffffffffffffffffffffffffffffff168152602001908152602001600020549050919050565b60606007805480602002602001604051908101604052809291908181526020016000905b828210156110f257838290600052602060002090600502016040518060a001604052908160008201548152602001600182018054610fa890614970565b80601f0160208091040260200160405190810160405280929190818152602001828054610fd490614970565b80156110215780601f10610ff657610100808354040283529160200191611021565b820191906000526020600020905b81548152906001019060200180831161100457829003601f168201915b5050505050815260200160028201805461103a90614970565b80601f016020809104026020016040519081016040528092919081815260200182805461106690614970565b80156110b35780601f10611088576101008083540402835291602001916110b3565b820191906000526020600020905b81548152906001019060200180831161109657829003601f168201915b505050505081526020016003820160009054906101000a900460ff1660ff1660ff16815260200160048201548152505081526020019060010190610f6b565b50505050905090565b60606001805461110a90614970565b80601f016020809104026020016040519081016040528092919081815260200182805461113690614970565b80156111835780601f1061115857610100808354040283529160200191611183565b820191906000526020600020905b81548152906001019060200180831161116657829003601f168201915b5050505050905090565b6111956120aa565b73ffffffffffffffffffffffffffffffffffffffff168273ffffffffffffffffffffffffffffffffffffffff161415611203576040517f08c379a00000000000000000000000000000000000000000000000000000000081526004016111fa9061445e565b60405180910390fd5b80600560006112106120aa565b73ffffffffffffffffffffffffffffffffffffffff1673ffffffffffffffffffffffffffffffffffffffff16815260200190815260200160002060008473ffffffffffffffffffffffffffffffffffffffff1673ffffffffffffffffffffffffffffffffffffffff16815260200190815260200160002060006101000a81548160ff0219169083151502179055508173ffffffffffffffffffffffffffffffffffffffff166112bd6120aa565b73ffffffffffffffffffffffffffffffffffffffff167f17307eab39ab6107e8899845ad3d59bd9653f200f220920489ca2b5937696c318360405161130291906141e5565b60405180910390a35050565b6001600a60003373ffffffffffffffffffffffffffffffffffffffff1673ffffffffffffffffffffffffffffffffffffffff16815260200190815260200160002060006101000a81548160ff0219169083151502179055506000600960003373ffffffffffffffffffffffffffffffffffffffff1673ffffffffffffffffffffffffffffffffffffffff16815260200190815260200160002054905060006008600083815260200190815260200160002090506113f46040518060800160405280604c8152602001614c98604c9139600c60010154600c60030154600c60020154612570565b6114bc6040518060a00160405280606a8152602001614bc6606a913982600101805461141f90614970565b80601f016020809104026020016040519081016040528092919081815260200182805461144b90614970565b80156114985780601f1061146d57610100808354040283529160200191611498565b820191906000526020600020905b81548152906001019060200180831161147b57829003601f168201915b505050505083600401548460030160009054906101000a900460ff1660ff16612612565b8060030160009054906101000a900460ff1660ff16600c60010160008282546114e59190614798565b925050819055507f93174fc16652d057079ebcf11a5372157ba9698227e3e6641e93a9d87576f0b0600c60010154600c60020154600c6003015460405161152e9392919061465e565b60405180910390a1600c60020154600c600101541061165157611555600c600301546126b4565b61155d612833565b611610604051806060016040528060408152602001614b466040913982600101805461158890614970565b80601f01602080910402602001604051908101604052809291908181526020018280546115b490614970565b80156116015780601f106115d657610100808354040283529160200191611601565b820191906000526020600020905b8154815290600101906020018083116115e457829003601f168201915b505050505083600401546124d1565b7f8364da3bb15fd0c1a47f2973be0e4912d8a97f6aa363c741cb629e2ddf5637c48160010182600401546040516116489291906143ce565b60405180910390a15b7f3b4f6d7e039bb0e44f443161c0b07e2a1a0c317f64d448a5ed66ffb44e210508600c60010154600c60020154600c600301546040516116939392919061465e565b60405180910390a15050565b6116b06116aa6120aa565b8361216b565b6116ef576040517f08c379a00000000000000000000000000000000000000000000000000000000081526004016116e69061457e565b60405180910390fd5b6116fb848484846128b5565b50505050565b611709613282565b6000600960003373ffffffffffffffffffffffffffffffffffffffff1673ffffffffffffffffffffffffffffffffffffffff16815260200190815260200160002054905060008111156118d7576000600860008381526020019081526020016000206040518060a00160405290816000820154815260200160018201805461179090614970565b80601f01602080910402602001604051908101604052809291908181526020018280546117bc90614970565b80156118095780601f106117de57610100808354040283529160200191611809565b820191906000526020600020905b8154815290600101906020018083116117ec57829003601f168201915b5050505050815260200160028201805461182290614970565b80601f016020809104026020016040519081016040528092919081815260200182805461184e90614970565b801561189b5780601f106118705761010080835404028352916020019161189b565b820191906000526020600020905b81548152906001019060200180831161187e57829003601f168201915b505050505081526020016003820160009054906101000a900460ff1660ff1660ff168152602001600482015481525050905080925050506118e5565b6118df613282565b80925050505b90565b60606000600860008481526020019081526020016000206040518060a00160405290816000820154815260200160018201805461192490614970565b80601f016020809104026020016040519081016040528092919081815260200182805461195090614970565b801561199d5780601f106119725761010080835404028352916020019161199d565b820191906000526020600020905b81548152906001019060200180831161198057829003601f168201915b505050505081526020016002820180546119b690614970565b80601f01602080910402602001604051908101604052809291908181526020018280546119e290614970565b8015611a2f5780601f10611a0457610100808354040283529160200191611a2f565b820191906000526020600020905b815481529060010190602001808311611a1257829003601f168201915b505050505081526020016003820160009054906101000a900460ff1660ff1660ff16815260200160048201548152505090506000611a73826060015160ff16612911565b90506000611a848360800151612911565b90506000611ac88460200151611a9988612911565b86604001518686604051602001611ab4959493929190614076565b604051602081830303815290604052612abe565b9050600081604051602001611add9190614103565b60405160208183030381529060405290508095505050505050919050565b60096020528060005260406000206000915090505481565b6008602052806000526040600020600091509050806000015490806001018054611b3c90614970565b80601f0160208091040260200160405190810160405280929190818152602001828054611b6890614970565b8015611bb55780601f10611b8a57610100808354040283529160200191611bb5565b820191906000526020600020905b815481529060010190602001808311611b9857829003601f168201915b505050505090806002018054611bca90614970565b80601f0160208091040260200160405190810160405280929190818152602001828054611bf690614970565b8015611c435780601f10611c1857610100808354040283529160200191611c43565b820191906000526020600020905b815481529060010190602001808311611c2657829003601f168201915b5050505050908060030160009054906101000a900460ff16908060040154905085565b611c6e6132b4565b600c604051806080016040529081600082018054611c8b90614970565b80601f0160208091040260200160405190810160405280929190818152602001828054611cb790614970565b8015611d045780601f10611cd957610100808354040283529160200191611d04565b820191906000526020600020905b815481529060010190602001808311611ce757829003601f168201915b505050505081526020016001820154815260200160028201548152602001600382015481525050905090565b6000600560008473ffffffffffffffffffffffffffffffffffffffff1673ffffffffffffffffffffffffffffffffffffffff16815260200190815260200160002060008373ffffffffffffffffffffffffffffffffffffffff1673ffffffffffffffffffffffffffffffffffffffff16815260200190815260200160002060009054906101000a900460ff16905092915050565b600a6020528060005260406000206000915054906101000a900460ff1681565b611e7a81604051602401611df89190614200565b6040516020818303038152906040527f41304fac000000000000000000000000000000000000000000000000000000007bffffffffffffffffffffffffffffffffffffffffffffffffffffffff19166020820180517bffffffffffffffffffffffffffffffffffffffffffffffffffffffff8381831617835250505050612c7c565b50565b611f17838383604051602401611e9593929190614344565b6040516020818303038152906040527f969cdd03000000000000000000000000000000000000000000000000000000007bffffffffffffffffffffffffffffffffffffffffffffffffffffffff19166020820180517bffffffffffffffffffffffffffffffffffffffffffffffffffffffff8381831617835250505050612c7c565b505050565b611fb884848484604051602401611f369493929190614267565b6040516020818303038152906040527f8d142cdd000000000000000000000000000000000000000000000000000000007bffffffffffffffffffffffffffffffffffffffffffffffffffffffff19166020820180517bffffffffffffffffffffffffffffffffffffffffffffffffffffffff8381831617835250505050612c7c565b50505050565b6001816000016000828254019250508190555050565b60007f01ffc9a7000000000000000000000000000000000000000000000000000000007bffffffffffffffffffffffffffffffffffffffffffffffffffffffff1916827bffffffffffffffffffffffffffffffffffffffffffffffffffffffff1916149050919050565b60008073ffffffffffffffffffffffffffffffffffffffff166002600084815260200190815260200160002060009054906101000a900473ffffffffffffffffffffffffffffffffffffffff1673ffffffffffffffffffffffffffffffffffffffff1614159050919050565b600033905090565b816004600083815260200190815260200160002060006101000a81548173ffffffffffffffffffffffffffffffffffffffff021916908373ffffffffffffffffffffffffffffffffffffffff160217905550808273ffffffffffffffffffffffffffffffffffffffff1661212583610ddd565b73ffffffffffffffffffffffffffffffffffffffff167f8c5be1e5ebec7d5bd14f71427d1e84f3dd0314c0f7b2291e5b200ac8c7c3b92560405160405180910390a45050565b60006121768261203e565b6121b5576040517f08c379a00000000000000000000000000000000000000000000000000000000081526004016121ac9061447e565b60405180910390fd5b60006121c083610ddd565b90508073ffffffffffffffffffffffffffffffffffffffff168473ffffffffffffffffffffffffffffffffffffffff16148061222f57508373ffffffffffffffffffffffffffffffffffffffff166122178461067e565b73ffffffffffffffffffffffffffffffffffffffff16145b80612240575061223f8185611d30565b5b91505092915050565b8273ffffffffffffffffffffffffffffffffffffffff1661226982610ddd565b73ffffffffffffffffffffffffffffffffffffffff16146122bf576040517f08c379a00000000000000000000000000000000000000000000000000000000081526004016122b69061453e565b60405180910390fd5b600073ffffffffffffffffffffffffffffffffffffffff168273ffffffffffffffffffffffffffffffffffffffff16141561232f576040517f08c379a00000000000000000000000000000000000000000000000000000000081526004016123269061443e565b60405180910390fd5b61233a838383612ca5565b6123456000826120b2565b6001600360008573ffffffffffffffffffffffffffffffffffffffff1673ffffffffffffffffffffffffffffffffffffffff16815260200190815260200160002060008282546123959190614879565b925050819055506001600360008473ffffffffffffffffffffffffffffffffffffffff1673ffffffffffffffffffffffffffffffffffffffff16815260200190815260200160002060008282546123ec9190614798565b92505081905550816002600083815260200190815260200160002060006101000a81548173ffffffffffffffffffffffffffffffffffffffff021916908373ffffffffffffffffffffffffffffffffffffffff160217905550808273ffffffffffffffffffffffffffffffffffffffff168473ffffffffffffffffffffffffffffffffffffffff167fddf252ad1be2c89b69c2b068fc378daa952ba7f163c4a11628f55a4df523b3ef60405160405180910390a4505050565b600081600001549050919050565b6124cd828260405180602001604052806000815250612caa565b5050565b61256b8383836040516024016124e993929190614222565b6040516020818303038152906040527ff362ca59000000000000000000000000000000000000000000000000000000007bffffffffffffffffffffffffffffffffffffffffffffffffffffffff19166020820180517bffffffffffffffffffffffffffffffffffffffffffffffffffffffff8381831617835250505050612c7c565b505050565b61260c8484848460405160240161258a9493929190614382565b6040516020818303038152906040527f08ee5666000000000000000000000000000000000000000000000000000000007bffffffffffffffffffffffffffffffffffffffffffffffffffffffff19166020820180517bffffffffffffffffffffffffffffffffffffffffffffffffffffffff8381831617835250505050612c7c565b50505050565b6126ae8484848460405160240161262c94939291906142c1565b6040516020818303038152906040527fd5cf17d0000000000000000000000000000000000000000000000000000000007bffffffffffffffffffffffffffffffffffffffffffffffffffffffff19166020820180517bffffffffffffffffffffffffffffffffffffffffffffffffffffffff8381831617835250505050612c7c565b50505050565b6126d66040518060600160405280603c8152602001614c5c603c913982612d05565b60005b600b8054905081101561282f576000600b8281548110612722577f4e487b7100000000000000000000000000000000000000000000000000000000600052603260045260246000fd5b9060005260206000200160009054906101000a900473ffffffffffffffffffffffffffffffffffffffff169050600a60008273ffffffffffffffffffffffffffffffffffffffff1673ffffffffffffffffffffffffffffffffffffffff16815260200190815260200160002060009054906101000a900460ff161561281a576000600960008373ffffffffffffffffffffffffffffffffffffffff1673ffffffffffffffffffffffffffffffffffffffff1681526020019081526020016000205490506000600860008381526020019081526020016000209050848160040160008282546128109190614798565b9250508190555050505b506001816128289190614798565b90506126d9565b5050565b6000600c600101819055506002600c6002016000828254612854919061481f565b925050819055506002600c60030160008282546128719190614798565b925050819055506128ab6040518060800160405280605b8152602001614ce4605b9139600c60010154600c60030154600c60020154612570565b6128b3612da1565b565b6128c0848484612249565b6128cc84848484612e84565b61290b576040517f08c379a0000000000000000000000000000000000000000000000000000000008152600401612902906143fe565b60405180910390fd5b50505050565b60606000821415612959576040518060400160405280600181526020017f30000000000000000000000000000000000000000000000000000000000000008152509050612ab9565b600082905060005b6000821461298b578080612974906149a2565b915050600a8261298491906147ee565b9150612961565b60008167ffffffffffffffff8111156129cd577f4e487b7100000000000000000000000000000000000000000000000000000000600052604160045260246000fd5b6040519080825280601f01601f1916602001820160405280156129ff5781602001600182028036833780820191505090505b5090505b60008514612ab257600182612a189190614879565b9150600a85612a2791906149eb565b6030612a339190614798565b60f81b818381518110612a6f577f4e487b7100000000000000000000000000000000000000000000000000000000600052603260045260246000fd5b60200101907effffffffffffffffffffffffffffffffffffffffffffffffffffffffffffff1916908160001a905350600a85612aab91906147ee565b9450612a03565b8093505050505b919050565b60606000825190506000811415612ae75760405180602001604052806000815250915050612c77565b60006003600283612af89190614798565b612b0291906147ee565b6004612b0e919061481f565b90506000602082612b1f9190614798565b67ffffffffffffffff811115612b5e577f4e487b7100000000000000000000000000000000000000000000000000000000600052604160045260246000fd5b6040519080825280601f01601f191660200182016040528015612b905781602001600182028036833780820191505090505b5090506000604051806060016040528060408152602001614b86604091399050600181016020830160005b86811015612c345760038101905062ffffff818a015116603f8160121c168401518060081b905060ff603f83600c1c1686015116810190508060081b905060ff603f8360061c1686015116810190508060081b905060ff603f831686015116810190508060e01b90508084526004840193505050612bbb565b506003860660018114612c4e5760028114612c5e57612c69565b613d3d60f01b6002830352612c69565b603d60f81b60018303525b508484525050819450505050505b919050565b60008151905060006a636f6e736f6c652e6c6f679050602083016000808483855afa5050505050565b505050565b612cb4838361301b565b612cc16000848484612e84565b612d00576040517f08c379a0000000000000000000000000000000000000000000000000000000008152600401612cf7906143fe565b60405180910390fd5b505050565b612d9d8282604051602401612d1b929190614314565b6040516020818303038152906040527f9710a9d0000000000000000000000000000000000000000000000000000000007bffffffffffffffffffffffffffffffffffffffffffffffffffffffff19166020820180517bffffffffffffffffffffffffffffffffffffffffffffffffffffffff8381831617835250505050612c7c565b5050565b60005b600b80549050811015612e81576000600a6000600b8481548110612df1577f4e487b7100000000000000000000000000000000000000000000000000000000600052603260045260246000fd5b9060005260206000200160009054906101000a900473ffffffffffffffffffffffffffffffffffffffff1673ffffffffffffffffffffffffffffffffffffffff1673ffffffffffffffffffffffffffffffffffffffff16815260200190815260200160002060006101000a81548160ff021916908315150217905550600181612e7a9190614798565b9050612da4565b50565b6000612ea58473ffffffffffffffffffffffffffffffffffffffff166131e9565b1561300e578373ffffffffffffffffffffffffffffffffffffffff1663150b7a02612ece6120aa565b8786866040518563ffffffff1660e01b8152600401612ef09493929190614140565b602060405180830381600087803b158015612f0a57600080fd5b505af1925050508015612f3b57506040513d601f19601f82011682018060405250810190612f38919061359a565b60015b612fbe573d8060008114612f6b576040519150601f19603f3d011682016040523d82523d6000602084013e612f70565b606091505b50600081511415612fb6576040517f08c379a0000000000000000000000000000000000000000000000000000000008152600401612fad906143fe565b60405180910390fd5b805181602001fd5b63150b7a0260e01b7bffffffffffffffffffffffffffffffffffffffffffffffffffffffff1916817bffffffffffffffffffffffffffffffffffffffffffffffffffffffff191614915050613013565b600190505b949350505050565b600073ffffffffffffffffffffffffffffffffffffffff168273ffffffffffffffffffffffffffffffffffffffff16141561308b576040517f08c379a0000000000000000000000000000000000000000000000000000000008152600401613082906144fe565b60405180910390fd5b6130948161203e565b156130d4576040517f08c379a00000000000000000000000000000000000000000000000000000000081526004016130cb9061441e565b60405180910390fd5b6130e060008383612ca5565b6001600360008473ffffffffffffffffffffffffffffffffffffffff1673ffffffffffffffffffffffffffffffffffffffff16815260200190815260200160002060008282546131309190614798565b92505081905550816002600083815260200190815260200160002060006101000a81548173ffffffffffffffffffffffffffffffffffffffff021916908373ffffffffffffffffffffffffffffffffffffffff160217905550808273ffffffffffffffffffffffffffffffffffffffff16600073ffffffffffffffffffffffffffffffffffffffff167fddf252ad1be2c89b69c2b068fc378daa952ba7f163c4a11628f55a4df523b3ef60405160405180910390a45050565b600080823b905060008111915050919050565b82805461320890614970565b90600052602060002090601f01602090048101928261322a5760008555613271565b82601f1061324357805160ff1916838001178555613271565b82800160010185558215613271579182015b82811115613270578251825591602001919060010190613255565b5b50905061327e91906132dc565b5090565b6040518060a00160405280600081526020016060815260200160608152602001600060ff168152602001600081525090565b6040518060800160405280606081526020016000815260200160008152602001600081525090565b5b808211156132f55760008160009055506001016132dd565b5090565b600061330c613307846146c6565b614695565b90508281526020810184848401111561332457600080fd5b61332f84828561492e565b509392505050565b60008135905061334681614ae9565b92915050565b60008135905061335b81614b00565b92915050565b60008135905061337081614b17565b92915050565b60008151905061338581614b17565b92915050565b600082601f83011261339c57600080fd5b81356133ac8482602086016132f9565b91505092915050565b6000813590506133c481614b2e565b92915050565b6000602082840312156133dc57600080fd5b60006133ea84828501613337565b91505092915050565b6000806040838503121561340657600080fd5b600061341485828601613337565b925050602061342585828601613337565b9150509250929050565b60008060006060848603121561344457600080fd5b600061345286828701613337565b935050602061346386828701613337565b9250506040613474868287016133b5565b9150509250925092565b6000806000806080858703121561349457600080fd5b60006134a287828801613337565b94505060206134b387828801613337565b93505060406134c4878288016133b5565b925050606085013567ffffffffffffffff8111156134e157600080fd5b6134ed8782880161338b565b91505092959194509250565b6000806040838503121561350c57600080fd5b600061351a85828601613337565b925050602061352b8582860161334c565b9150509250929050565b6000806040838503121561354857600080fd5b600061355685828601613337565b9250506020613567858286016133b5565b9150509250929050565b60006020828403121561358357600080fd5b600061359184828501613361565b91505092915050565b6000602082840312156135ac57600080fd5b60006135ba84828501613376565b91505092915050565b6000602082840312156135d557600080fd5b60006135e3848285016133b5565b91505092915050565b60006135f88383613edd565b905092915050565b613609816148ad565b82525050565b600061361a8261471b565b6136248185614749565b935083602082028501613636856146f6565b8060005b85811015613672578484038952815161365385826135ec565b945061365e8361473c565b925060208a0199505060018101905061363a565b50829750879550505050505092915050565b61368d816148bf565b82525050565b600061369e82614726565b6136a8818561475a565b93506136b881856020860161493d565b6136c181614ad8565b840191505092915050565b60006136d782614731565b6136e1818561476b565b93506136f181856020860161493d565b6136fa81614ad8565b840191505092915050565b600061371082614731565b61371a818561477c565b935061372a81856020860161493d565b61373381614ad8565b840191505092915050565b600061374982614731565b613753818561478d565b935061376381856020860161493d565b80840191505092915050565b6000815461377c81614970565b613786818661477c565b945060018216600081146137a157600181146137b3576137e6565b60ff19831686526020860193506137e6565b6137bc85614706565b60005b838110156137de578154818901526001820191506020810190506137bf565b808801955050505b50505092915050565b60006137fc60328361477c565b91507f4552433732313a207472616e7366657220746f206e6f6e20455243373231526560008301527f63656976657220696d706c656d656e74657200000000000000000000000000006020830152604082019050919050565b6000613862601c8361477c565b91507f4552433732313a20746f6b656e20616c7265616479206d696e746564000000006000830152602082019050919050565b60006138a260248361477c565b91507f4552433732313a207472616e7366657220746f20746865207a65726f2061646460008301527f72657373000000000000000000000000000000000000000000000000000000006020830152604082019050919050565b600061390860198361477c565b91507f4552433732313a20617070726f766520746f2063616c6c6572000000000000006000830152602082019050919050565b6000613948602c8361477c565b91507f4552433732313a206f70657261746f7220717565727920666f72206e6f6e657860008301527f697374656e7420746f6b656e00000000000000000000000000000000000000006020830152604082019050919050565b60006139ae60388361477c565b91507f4552433732313a20617070726f76652063616c6c6572206973206e6f74206f7760008301527f6e6572206e6f7220617070726f76656420666f7220616c6c00000000000000006020830152604082019050919050565b6000613a14602a8361477c565b91507f4552433732313a2062616c616e636520717565727920666f7220746865207a6560008301527f726f2061646472657373000000000000000000000000000000000000000000006020830152604082019050919050565b6000613a7a60298361477c565b91507f4552433732313a206f776e657220717565727920666f72206e6f6e657869737460008301527f656e7420746f6b656e00000000000000000000000000000000000000000000006020830152604082019050919050565b6000613ae060048361478d565b91507f7d205d7d000000000000000000000000000000000000000000000000000000006000830152600482019050919050565b6000613b2060208361477c565b91507f4552433732313a206d696e7420746f20746865207a65726f20616464726573736000830152602082019050919050565b6000613b60602c8361477c565b91507f4552433732313a20617070726f76656420717565727920666f72206e6f6e657860008301527f697374656e7420746f6b656e00000000000000000000000000000000000000006020830152604082019050919050565b6000613bc660408361478d565b91507f222c202261747472696275746573223a205b207b202274726169745f7479706560008301527f223a202247726f77746820496e666c75656e6365222c202276616c7565223a206020830152604082019050919050565b6000613c2c60298361477c565b91507f4552433732313a207472616e73666572206f6620746f6b656e2074686174206960008301527f73206e6f74206f776e00000000000000000000000000000000000000000000006020830152604082019050919050565b6000613c92600a8361478d565b91507f7b226e616d65223a2022000000000000000000000000000000000000000000006000830152600a82019050919050565b6000613cd260218361477c565b91507f4552433732313a20617070726f76616c20746f2063757272656e74206f776e6560008301527f72000000000000000000000000000000000000000000000000000000000000006020830152604082019050919050565b6000613d38601d8361478d565b91507f646174613a6170706c69636174696f6e2f6a736f6e3b6261736536342c0000006000830152601d82019050919050565b6000613d7860318361477c565b91507f4552433732313a207472616e736665722063616c6c6572206973206e6f74206f60008301527f776e6572206e6f7220617070726f7665640000000000000000000000000000006020830152604082019050919050565b6000613dde600a8361478d565b91507f202d2d4e465420233a20000000000000000000000000000000000000000000006000830152600a82019050919050565b6000613e1e603c8361478d565b91507f222c20226465736372697074696f6e223a20224e465420666f7220706c61796960008301527f6e672054726565206f66204c696665222c2022696d616765223a2022000000006020830152603c82019050919050565b6000613e84602f8361478d565b91507f7d2c207b202274726169745f74797065223a2022467275697420436f6c6c656360008301527f746564222c202276616c7565223a2000000000000000000000000000000000006020830152602f82019050919050565b600060a083016000830151613ef5600086018261403a565b5060208301518482036020860152613f0d82826136cc565b91505060408301518482036040860152613f2782826136cc565b9150506060830151613f3c6060860182614058565b506080830151613f4f608086018261403a565b508091505092915050565b600060a083016000830151613f72600086018261403a565b5060208301518482036020860152613f8a82826136cc565b91505060408301518482036040860152613fa482826136cc565b9150506060830151613fb96060860182614058565b506080830151613fcc608086018261403a565b508091505092915050565b60006080830160008301518482036000860152613ff482826136cc565b9150506020830151614009602086018261403a565b50604083015161401c604086018261403a565b50606083015161402f606086018261403a565b508091505092915050565b61404381614917565b82525050565b61405281614917565b82525050565b61406181614921565b82525050565b61407081614921565b82525050565b600061408182613c85565b915061408d828861373e565b915061409882613dd1565b91506140a4828761373e565b91506140af82613e11565b91506140bb828661373e565b91506140c682613bb9565b91506140d2828561373e565b91506140dd82613e77565b91506140e9828461373e565b91506140f482613ad3565b91508190509695505050505050565b600061410e82613d2b565b915061411a828461373e565b915081905092915050565b600060208201905061413a6000830184613600565b92915050565b60006080820190506141556000830187613600565b6141626020830186613600565b61416f6040830185614049565b81810360608301526141818184613693565b905095945050505050565b60006060820190506141a16000830186613600565b6141ae6020830185614049565b6141bb6040830184614049565b949350505050565b600060208201905081810360008301526141dd818461360f565b905092915050565b60006020820190506141fa6000830184613684565b92915050565b6000602082019050818103600083015261421a8184613705565b905092915050565b6000606082019050818103600083015261423c8186613705565b905081810360208301526142508185613705565b905061425f6040830184614049565b949350505050565b600060808201905081810360008301526142818187613705565b905081810360208301526142958186613705565b90506142a46040830185614049565b81810360608301526142b68184613705565b905095945050505050565b600060808201905081810360008301526142db8187613705565b905081810360208301526142ef8186613705565b90506142fe6040830185614049565b61430b6060830184614049565b95945050505050565b6000604082019050818103600083015261432e8185613705565b905061433d6020830184614049565b9392505050565b6000606082019050818103600083015261435e8186613705565b905061436d6020830185614049565b61437a6040830184614049565b949350505050565b6000608082019050818103600083015261439c8187613705565b90506143ab6020830186614049565b6143b86040830185614049565b6143c56060830184614049565b95945050505050565b600060408201905081810360008301526143e8818561376f565b90506143f76020830184614049565b9392505050565b60006020820190508181036000830152614417816137ef565b9050919050565b6000602082019050818103600083015261443781613855565b9050919050565b6000602082019050818103600083015261445781613895565b9050919050565b60006020820190508181036000830152614477816138fb565b9050919050565b600060208201905081810360008301526144978161393b565b9050919050565b600060208201905081810360008301526144b7816139a1565b9050919050565b600060208201905081810360008301526144d781613a07565b9050919050565b600060208201905081810360008301526144f781613a6d565b9050919050565b6000602082019050818103600083015261451781613b13565b9050919050565b6000602082019050818103600083015261453781613b53565b9050919050565b6000602082019050818103600083015261455781613c1f565b9050919050565b6000602082019050818103600083015261457781613cc5565b9050919050565b6000602082019050818103600083015261459781613d6b565b9050919050565b600060208201905081810360008301526145b88184613f5a565b905092915050565b600060208201905081810360008301526145da8184613fd7565b905092915050565b60006020820190506145f76000830184614049565b92915050565b600060a0820190506146126000830188614049565b81810360208301526146248187613705565b905081810360408301526146388186613705565b90506146476060830185614067565b6146546080830184614049565b9695505050505050565b60006060820190506146736000830186614049565b6146806020830185614049565b61468d6040830184614049565b949350505050565b6000604051905081810181811067ffffffffffffffff821117156146bc576146bb614aa9565b5b8060405250919050565b600067ffffffffffffffff8211156146e1576146e0614aa9565b5b601f19601f8301169050602081019050919050565b6000819050602082019050919050565b60008190508160005260206000209050919050565b600081519050919050565b600081519050919050565b600081519050919050565b6000602082019050919050565b600082825260208201905092915050565b600082825260208201905092915050565b600082825260208201905092915050565b600082825260208201905092915050565b600081905092915050565b60006147a382614917565b91506147ae83614917565b9250827fffffffffffffffffffffffffffffffffffffffffffffffffffffffffffffffff038211156147e3576147e2614a1c565b5b828201905092915050565b60006147f982614917565b915061480483614917565b92508261481457614813614a4b565b5b828204905092915050565b600061482a82614917565b915061483583614917565b9250817fffffffffffffffffffffffffffffffffffffffffffffffffffffffffffffffff048311821515161561486e5761486d614a1c565b5b828202905092915050565b600061488482614917565b915061488f83614917565b9250828210156148a2576148a1614a1c565b5b828203905092915050565b60006148b8826148f7565b9050919050565b60008115159050919050565b60007fffffffff0000000000000000000000000000000000000000000000000000000082169050919050565b600073ffffffffffffffffffffffffffffffffffffffff82169050919050565b6000819050919050565b600060ff82169050919050565b82818337600083830152505050565b60005b8381101561495b578082015181840152602081019050614940565b8381111561496a576000848401525b50505050565b6000600282049050600182168061498857607f821691505b6020821081141561499c5761499b614a7a565b5b50919050565b60006149ad82614917565b91507fffffffffffffffffffffffffffffffffffffffffffffffffffffffffffffffff8214156149e0576149df614a1c565b5b600182019050919050565b60006149f682614917565b9150614a0183614917565b925082614a1157614a10614a4b565b5b828206905092915050565b7f4e487b7100000000000000000000000000000000000000000000000000000000600052601160045260246000fd5b7f4e487b7100000000000000000000000000000000000000000000000000000000600052601260045260246000fd5b7f4e487b7100000000000000000000000000000000000000000000000000000000600052602260045260246000fd5b7f4e487b7100000000000000000000000000000000000000000000000000000000600052604160045260246000fd5b6000601f19601f8301169050919050565b614af2816148ad565b8114614afd57600080fd5b50565b614b09816148bf565b8114614b1457600080fd5b50565b614b20816148cb565b8114614b2b57600080fd5b50565b614b3781614917565b8114614b4257600080fd5b5056fe4166746572206c6576656c2075703a20506c6179657220776974682063686172616374657220257320616e642066727569747320636f6c6c65637465642025644142434445464748494a4b4c4d4e4f505152535455565758595a6162636465666768696a6b6c6d6e6f707172737475767778797a303132333435363738392b2f506c6179657220776974682063686172616374657220257320616e642066727569747320636f6c6c65637465642025642069732061626f757420746f20737570706f72742074726565206f66206c69666520776974682025642067726f77746820696e666c75656e63654d696e746564206e6577204e46543a2025732063686172616374657220616e6420746f6b656e20496420256454726565206f66206c6966652069732061626f757420746f206265617220256420667275697420746f20616c6c20737570706f72746572206e6674730a54726565206f66206c69666520686173202573206865616c746820616e642077696c6c20626561722025642066727569742069662067726561746572207468616e202564206865616c74684c6576656c65642075703a2054726565206f66206c696665206e6f7720686173202573206865616c746820616e642077696c6c20626561722025642066727569742069662067726561746572207468616e202564206865616c7468a264697066735822122042a086330f83701b8a33122e526099e8bcb9f2112c338b51ef21221415fd2eaf64736f6c63430008000033446f6e6520696e697469616c697a696e6720257320776974682067726f77746820696e666c75656e636520256420616e6420696d616765202573446f6e6520696e697469616c697a696e672054726565204f66204c6966652077697468202564206865616c74682c20256420667275697420746f2062656172",
  "linkReferences": {},
  "deployedLinkReferences": {}
}